{
  "_format": "hh-sol-artifact-1",
  "contractName": "Assessment",
  "sourceName": "contracts/Assessment.sol",
  "abi": [
    {
      "inputs": [],
      "stateMutability": "nonpayable",
      "type": "constructor"
    },
    {
      "anonymous": false,
      "inputs": [
        {
          "indexed": false,
          "internalType": "uint256",
          "name": "projectId",
          "type": "uint256"
        },
        {
          "indexed": false,
          "internalType": "address",
          "name": "voter",
          "type": "address"
        }
      ],
      "name": "VoteCast",
      "type": "event"
    },
    {
      "inputs": [
        {
          "internalType": "uint256",
          "name": "_projectId",
          "type": "uint256"
        }
      ],
      "name": "castVote",
      "outputs": [],
      "stateMutability": "nonpayable",
      "type": "function"
    },
    {
      "inputs": [
        {
          "internalType": "uint256",
          "name": "_projectId",
          "type": "uint256"
        }
      ],
      "name": "getProjectDetails",
      "outputs": [
        {
          "internalType": "string",
          "name": "",
          "type": "string"
        },
        {
          "internalType": "string",
          "name": "",
          "type": "string"
        },
        {
          "internalType": "uint256",
          "name": "",
          "type": "uint256"
        }
      ],
      "stateMutability": "view",
      "type": "function"
    },
    {
      "inputs": [
        {
          "internalType": "uint256",
          "name": "_projectId",
          "type": "uint256"
        }
      ],
      "name": "getProjectVotes",
      "outputs": [
        {
          "internalType": "uint256",
          "name": "",
          "type": "uint256"
        }
      ],
      "stateMutability": "view",
      "type": "function"
    },
    {
      "inputs": [],
      "name": "getTotalProjects",
      "outputs": [
        {
          "internalType": "uint256",
          "name": "",
          "type": "uint256"
        }
      ],
      "stateMutability": "view",
      "type": "function"
    },
    {
      "inputs": [
        {
          "internalType": "address",
          "name": "_voter",
          "type": "address"
        }
      ],
      "name": "hasUserVoted",
      "outputs": [
        {
          "internalType": "bool",
          "name": "",
          "type": "bool"
        }
      ],
      "stateMutability": "view",
      "type": "function"
    },
    {
      "inputs": [
        {
          "internalType": "address",
          "name": "",
          "type": "address"
        }
      ],
      "name": "hasVoted",
      "outputs": [
        {
          "internalType": "bool",
          "name": "",
          "type": "bool"
        }
      ],
      "stateMutability": "view",
      "type": "function"
    },
    {
      "inputs": [],
      "name": "owner",
      "outputs": [
        {
          "internalType": "address",
          "name": "",
          "type": "address"
        }
      ],
      "stateMutability": "view",
      "type": "function"
    },
    {
      "inputs": [
        {
          "internalType": "uint256",
          "name": "",
          "type": "uint256"
        }
      ],
      "name": "projects",
      "outputs": [
        {
          "internalType": "string",
          "name": "name",
          "type": "string"
        },
        {
          "internalType": "string",
          "name": "description",
          "type": "string"
        },
        {
          "internalType": "uint256",
          "name": "voteCount",
          "type": "uint256"
        }
      ],
      "stateMutability": "view",
      "type": "function"
    }
  ],
  "bytecode": "0x60806040523480156200001157600080fd5b50336000806101000a81548173ffffffffffffffffffffffffffffffffffffffff021916908373ffffffffffffffffffffffffffffffffffffffff160217905550600160405180606001604052806040518060400160405280601881526020017f45636f2d667269656e646c79204d61726b6574706c61636500000000000000008152508152602001604051806060016040528060338152602001620011d960339139815260200160008152509080600181540180825580915050600190039060005260206000209060030201600090919091909150600082015181600001908051906020019062000105929190620002f5565b50602082015181600101908051906020019062000124929190620002f5565b50604082015181600201555050600160405180606001604052806040518060400160405280601581526020017f44654669204c656e64696e6720506c6174666f726d00000000000000000000008152508152602001604051806060016040528060358152602001620011a4603591398152602001600081525090806001815401808255809150506001900390600052602060002090600302016000909190919091506000820151816000019080519060200190620001e4929190620002f5565b50602082015181600101908051906020019062000203929190620002f5565b50604082015181600201555050600160405180606001604052806040518060400160405280601381526020017f4e46542047616d696e6720506c6174666f726d00000000000000000000000000815250815260200160405180606001604052806030815260200162001174603091398152602001600081525090806001815401808255809150506001900390600052602060002090600302016000909190919091506000820151816000019080519060200190620002c3929190620002f5565b506020820151816001019080519060200190620002e2929190620002f5565b506040820151816002015550506200040a565b8280546200030390620003d4565b90600052602060002090601f01602090048101928262000327576000855562000373565b82601f106200034257805160ff191683800117855562000373565b8280016001018555821562000373579182015b828111156200037257825182559160200191906001019062000355565b5b50905062000382919062000386565b5090565b5b80821115620003a157600081600090555060010162000387565b5090565b7f4e487b7100000000000000000000000000000000000000000000000000000000600052602260045260246000fd5b60006002820490506001821680620003ed57607f821691505b60208210811415620004045762000403620003a5565b5b50919050565b610d5a806200041a6000396000f3fe608060405234801561001057600080fd5b50600436106100885760003560e01c80637fabe80a1161005b5780637fabe80a1461013d578063812739a21461016d5780638da5cb5b1461018b578063fdfda408146101a957610088565b806309eef43e1461008d578063107046bd146100bd5780633eb76b9c146100ef5780635f8439e31461010b575b600080fd5b6100a760048036038101906100a29190610916565b6101d9565b6040516100b4919061095e565b60405180910390f35b6100d760048036038101906100d291906109af565b6101f9565b6040516100e693929190610a84565b60405180910390f35b610109600480360381019061010491906109af565b610343565b005b610125600480360381019061012091906109af565b61058f565b60405161013493929190610a84565b60405180910390f35b61015760048036038101906101529190610916565b610757565b604051610164919061095e565b60405180910390f35b61017561080c565b6040516101829190610ac9565b60405180910390f35b610193610819565b6040516101a09190610af3565b60405180910390f35b6101c360048036038101906101be91906109af565b61083d565b6040516101d09190610ac9565b60405180910390f35b60026020528060005260406000206000915054906101000a900460ff1681565b6001818154811061020957600080fd5b906000526020600020906003020160009150905080600001805461022c90610b3d565b80601f016020809104026020016040519081016040528092919081815260200182805461025890610b3d565b80156102a55780601f1061027a576101008083540402835291602001916102a5565b820191906000526020600020905b81548152906001019060200180831161028857829003601f168201915b5050505050908060010180546102ba90610b3d565b80601f01602080910402602001604051908101604052809291908181526020018280546102e690610b3d565b80156103335780601f1061030857610100808354040283529160200191610333565b820191906000526020600020905b81548152906001019060200180831161031657829003601f168201915b5050505050908060020154905083565b60008054906101000a900473ffffffffffffffffffffffffffffffffffffffff1673ffffffffffffffffffffffffffffffffffffffff163373ffffffffffffffffffffffffffffffffffffffff161461042457600260003373ffffffffffffffffffffffffffffffffffffffff1673ffffffffffffffffffffffffffffffffffffffff16815260200190815260200160002060009054906101000a900460ff1615610423576040517f08c379a000000000000000000000000000000000000000000000000000000000815260040161041a90610bbb565b60405180910390fd5b5b600180549050811061046b576040517f08c379a000000000000000000000000000000000000000000000000000000000815260040161046290610c27565b60405180910390fd5b60018082815481106104805761047f610c47565b5b906000526020600020906003020160020160008282546104a09190610ca5565b9250508190555060008054906101000a900473ffffffffffffffffffffffffffffffffffffffff1673ffffffffffffffffffffffffffffffffffffffff163373ffffffffffffffffffffffffffffffffffffffff1614610553576001600260003373ffffffffffffffffffffffffffffffffffffffff1673ffffffffffffffffffffffffffffffffffffffff16815260200190815260200160002060006101000a81548160ff0219169083151502179055505b7ff1003b73c437642c0460aee9cd9628b0b8c447b66e6c7c905531b9c644214a118133604051610584929190610cfb565b60405180910390a150565b606080600060018054905084106105db576040517f08c379a00000000000000000000000000000000000000000000000000000000081526004016105d290610c27565b60405180910390fd5b6000600185815481106105f1576105f0610c47565b5b906000526020600020906003020160405180606001604052908160008201805461061a90610b3d565b80601f016020809104026020016040519081016040528092919081815260200182805461064690610b3d565b80156106935780601f1061066857610100808354040283529160200191610693565b820191906000526020600020905b81548152906001019060200180831161067657829003601f168201915b505050505081526020016001820180546106ac90610b3d565b80601f01602080910402602001604051908101604052809291908181526020018280546106d890610b3d565b80156107255780601f106106fa57610100808354040283529160200191610725565b820191906000526020600020905b81548152906001019060200180831161070857829003601f168201915b505050505081526020016002820154815250509050806000015181602001518260400151935093509350509193909250565b60008060009054906101000a900473ffffffffffffffffffffffffffffffffffffffff1673ffffffffffffffffffffffffffffffffffffffff168273ffffffffffffffffffffffffffffffffffffffff1614156107b75760009050610807565b600260008373ffffffffffffffffffffffffffffffffffffffff1673ffffffffffffffffffffffffffffffffffffffff16815260200190815260200160002060009054906101000a900460ff1690505b919050565b6000600180549050905090565b60008054906101000a900473ffffffffffffffffffffffffffffffffffffffff1681565b60006001805490508210610886576040517f08c379a000000000000000000000000000000000000000000000000000000000815260040161087d90610c27565b60405180910390fd5b6001828154811061089a57610899610c47565b5b9060005260206000209060030201600201549050919050565b600080fd5b600073ffffffffffffffffffffffffffffffffffffffff82169050919050565b60006108e3826108b8565b9050919050565b6108f3816108d8565b81146108fe57600080fd5b50565b600081359050610910816108ea565b92915050565b60006020828403121561092c5761092b6108b3565b5b600061093a84828501610901565b91505092915050565b60008115159050919050565b61095881610943565b82525050565b6000602082019050610973600083018461094f565b92915050565b6000819050919050565b61098c81610979565b811461099757600080fd5b50565b6000813590506109a981610983565b92915050565b6000602082840312156109c5576109c46108b3565b5b60006109d38482850161099a565b91505092915050565b600081519050919050565b600082825260208201905092915050565b60005b83811015610a165780820151818401526020810190506109fb565b83811115610a25576000848401525b50505050565b6000601f19601f8301169050919050565b6000610a47826109dc565b610a5181856109e7565b9350610a618185602086016109f8565b610a6a81610a2b565b840191505092915050565b610a7e81610979565b82525050565b60006060820190508181036000830152610a9e8186610a3c565b90508181036020830152610ab28185610a3c565b9050610ac16040830184610a75565b949350505050565b6000602082019050610ade6000830184610a75565b92915050565b610aed816108d8565b82525050565b6000602082019050610b086000830184610ae4565b92915050565b7f4e487b7100000000000000000000000000000000000000000000000000000000600052602260045260246000fd5b60006002820490506001821680610b5557607f821691505b60208210811415610b6957610b68610b0e565b5b50919050565b7f596f75206861766520616c726561647920766f74656400000000000000000000600082015250565b6000610ba56016836109e7565b9150610bb082610b6f565b602082019050919050565b60006020820190508181036000830152610bd481610b98565b9050919050565b7f496e76616c69642070726f6a6563742049440000000000000000000000000000600082015250565b6000610c116012836109e7565b9150610c1c82610bdb565b602082019050919050565b60006020820190508181036000830152610c4081610c04565b9050919050565b7f4e487b7100000000000000000000000000000000000000000000000000000000600052603260045260246000fd5b7f4e487b7100000000000000000000000000000000000000000000000000000000600052601160045260246000fd5b6000610cb082610979565b9150610cbb83610979565b9250827fffffffffffffffffffffffffffffffffffffffffffffffffffffffffffffffff03821115610cf057610cef610c76565b5b828201905092915050565b6000604082019050610d106000830185610a75565b610d1d6020830184610ae4565b939250505056fea2646970667358221220de21ec71f34a39d1e2af8d4e339ad8f52a721e4db284fd0cb9bba2c3ffd7f44664736f6c6343000809003347616d696e6720706c6174666f726d2077697468204e465420696e746567726174696f6e20616e642072657761726473446563656e7472616c697a6564206c656e64696e6720706c6174666f726d207769746820636f6d706574697469766520726174657341207375737461696e61626c65206d61726b6574706c61636520666f722065636f2d667269656e646c792070726f6475637473",
  "linkReferences": {},
  "deployedLinkReferences": {}
}